{
  "contractName": "Auction",
  "abi": [
    {
      "inputs": [],
      "stateMutability": "nonpayable",
      "type": "constructor"
    },
    {
      "inputs": [],
      "name": "BidIncrement",
      "outputs": [
        {
          "internalType": "uint256",
          "name": "",
          "type": "uint256"
        }
      ],
      "stateMutability": "view",
      "type": "function",
      "constant": true
    },
    {
      "inputs": [],
      "name": "EndTime",
      "outputs": [
        {
          "internalType": "uint256",
          "name": "",
          "type": "uint256"
        }
      ],
      "stateMutability": "view",
      "type": "function",
      "constant": true
    },
    {
      "inputs": [],
      "name": "HighestBidder",
      "outputs": [
        {
          "internalType": "address payable",
          "name": "",
          "type": "address"
        }
      ],
      "stateMutability": "view",
      "type": "function",
      "constant": true
    },
    {
      "inputs": [],
      "name": "HighestPayableBid",
      "outputs": [
        {
          "internalType": "uint256",
          "name": "",
          "type": "uint256"
        }
      ],
      "stateMutability": "view",
      "type": "function",
      "constant": true
    },
    {
      "inputs": [],
      "name": "StartTime",
      "outputs": [
        {
          "internalType": "uint256",
          "name": "",
          "type": "uint256"
        }
      ],
      "stateMutability": "view",
      "type": "function",
      "constant": true
    },
    {
      "inputs": [],
      "name": "auctionState",
      "outputs": [
        {
          "internalType": "enum Auction.AuctionStatus",
          "name": "",
          "type": "uint8"
        }
      ],
      "stateMutability": "view",
      "type": "function",
      "constant": true
    },
    {
      "inputs": [],
      "name": "auctioneer",
      "outputs": [
        {
          "internalType": "address payable",
          "name": "",
          "type": "address"
        }
      ],
      "stateMutability": "view",
      "type": "function",
      "constant": true
    },
    {
      "inputs": [
        {
          "internalType": "address",
          "name": "",
          "type": "address"
        }
      ],
      "name": "bids",
      "outputs": [
        {
          "internalType": "uint256",
          "name": "",
          "type": "uint256"
        }
      ],
      "stateMutability": "view",
      "type": "function",
      "constant": true
    },
    {
      "inputs": [],
      "name": "AuctionCancel",
      "outputs": [],
      "stateMutability": "nonpayable",
      "type": "function"
    },
    {
      "inputs": [],
      "name": "Bid",
      "outputs": [],
      "stateMutability": "payable",
      "type": "function",
      "payable": true
    },
    {
      "inputs": [],
      "name": "finalizeAuction",
      "outputs": [],
      "stateMutability": "nonpayable",
      "type": "function"
    }
  ],
  "bytecode": "0x608060405234801561001057600080fd5b50336000806101000a81548173ffffffffffffffffffffffffffffffffffffffff021916908373ffffffffffffffffffffffffffffffffffffffff1602179055504360018190555060f060015461006791906100e5565b6002819055506001600360006101000a81548160ff021916908360038111156100935761009261013b565b5b0217905550670de0b6b3a764000060058190555061016a565b6000819050919050565b7f4e487b7100000000000000000000000000000000000000000000000000000000600052601160045260246000fd5b60006100f0826100ac565b91506100fb836100ac565b9250827fffffffffffffffffffffffffffffffffffffffffffffffffffffffffffffffff038211156101305761012f6100b6565b5b828201905092915050565b7f4e487b7100000000000000000000000000000000000000000000000000000000600052602160045260246000fd5b610e0b806101796000396000f3fe60806040526004361061009c5760003560e01c8063996657af11610064578063996657af14610169578063b2048e5e14610194578063be905565146101bf578063f77282ab146101ea578063f8b4aaa714610201578063fc4a4a1e146102185761009c565b806333360978146100a15780635ec2c7bf146100cc57806362ea82db146100f75780636e6452cb146101345780637fb450991461013e575b600080fd5b3480156100ad57600080fd5b506100b6610243565b6040516100c39190610a6e565b60405180910390f35b3480156100d857600080fd5b506100e1610249565b6040516100ee9190610aca565b60405180910390f35b34801561010357600080fd5b5061011e60048036038101906101199190610b28565b61026d565b60405161012b9190610a6e565b60405180910390f35b61013c610285565b005b34801561014a57600080fd5b50610153610575565b6040516101609190610bcc565b60405180910390f35b34801561017557600080fd5b5061017e610588565b60405161018b9190610aca565b60405180910390f35b3480156101a057600080fd5b506101a96105ae565b6040516101b69190610a6e565b60405180910390f35b3480156101cb57600080fd5b506101d46105b4565b6040516101e19190610a6e565b60405180910390f35b3480156101f657600080fd5b506101ff6105ba565b005b34801561020d57600080fd5b50610216610979565b005b34801561022457600080fd5b5061022d610a33565b60405161023a9190610a6e565b60405180910390f35b60025481565b60008054906101000a900473ffffffffffffffffffffffffffffffffffffffff1681565b60076020528060005260406000206000915090505481565b600254431061029357600080fd5b60015443116102a157600080fd5b600160038111156102b5576102b4610b55565b5b600360009054906101000a900460ff1660038111156102d7576102d6610b55565b5b14610317576040517f08c379a000000000000000000000000000000000000000000000000000000000815260040161030e90610c6a565b60405180910390fd5b600134101561032557600080fd5b600034600760003373ffffffffffffffffffffffffffffffffffffffff1673ffffffffffffffffffffffffffffffffffffffff168152602001908152602001600020546103729190610cb9565b9050600454811161038257600080fd5b80600760003373ffffffffffffffffffffffffffffffffffffffff1673ffffffffffffffffffffffffffffffffffffffff1681526020019081526020016000208190555060076000600660009054906101000a900473ffffffffffffffffffffffffffffffffffffffff1673ffffffffffffffffffffffffffffffffffffffff1673ffffffffffffffffffffffffffffffffffffffff168152602001908152602001600020548110156104b2576104a7600554826104409190610cb9565b60076000600660009054906101000a900473ffffffffffffffffffffffffffffffffffffffff1673ffffffffffffffffffffffffffffffffffffffff1673ffffffffffffffffffffffffffffffffffffffff16815260200190815260200160002054610a39565b600481905550610572565b61052a8160055460076000600660009054906101000a900473ffffffffffffffffffffffffffffffffffffffff1673ffffffffffffffffffffffffffffffffffffffff1673ffffffffffffffffffffffffffffffffffffffff168152602001908152602001600020546105259190610cb9565b610a39565b60048190555033600660006101000a81548173ffffffffffffffffffffffffffffffffffffffff021916908373ffffffffffffffffffffffffffffffffffffffff1602179055505b50565b600360009054906101000a900460ff1681565b600660009054906101000a900473ffffffffffffffffffffffffffffffffffffffff1681565b60055481565b60045481565b6003808111156105cd576105cc610b55565b5b600360009054906101000a900460ff1660038111156105ef576105ee610b55565b5b14806105fc575060025443115b61060557600080fd5b60008054906101000a900473ffffffffffffffffffffffffffffffffffffffff1673ffffffffffffffffffffffffffffffffffffffff163373ffffffffffffffffffffffffffffffffffffffff16148061069e57506000600760003373ffffffffffffffffffffffffffffffffffffffff1673ffffffffffffffffffffffffffffffffffffffff16815260200190815260200160002054115b6106a757600080fd5b6000806003808111156106bd576106bc610b55565b5b600360009054906101000a900460ff1660038111156106df576106de610b55565b5b141561072f57339150600760003373ffffffffffffffffffffffffffffffffffffffff1673ffffffffffffffffffffffffffffffffffffffff1681526020019081526020016000205490506108e9565b60008054906101000a900473ffffffffffffffffffffffffffffffffffffffff1673ffffffffffffffffffffffffffffffffffffffff163373ffffffffffffffffffffffffffffffffffffffff1614156107b05760008054906101000a900473ffffffffffffffffffffffffffffffffffffffff16915060045490506108e8565b600660009054906101000a900473ffffffffffffffffffffffffffffffffffffffff1673ffffffffffffffffffffffffffffffffffffffff163373ffffffffffffffffffffffffffffffffffffffff1614156108a157600660009054906101000a900473ffffffffffffffffffffffffffffffffffffffff16915060045460076000600660009054906101000a900473ffffffffffffffffffffffffffffffffffffffff1673ffffffffffffffffffffffffffffffffffffffff1673ffffffffffffffffffffffffffffffffffffffff1681526020019081526020016000205461089a9190610d0f565b90506108e7565b339150600760003373ffffffffffffffffffffffffffffffffffffffff1673ffffffffffffffffffffffffffffffffffffffff1681526020019081526020016000205490505b5b5b6000600760003373ffffffffffffffffffffffffffffffffffffffff1673ffffffffffffffffffffffffffffffffffffffff168152602001908152602001600020819055508173ffffffffffffffffffffffffffffffffffffffff166108fc829081150290604051600060405180830381858888f19350505050158015610974573d6000803e3d6000fd5b505050565b60008054906101000a900473ffffffffffffffffffffffffffffffffffffffff1673ffffffffffffffffffffffffffffffffffffffff163373ffffffffffffffffffffffffffffffffffffffff1614610a07576040517f08c379a00000000000000000000000000000000000000000000000000000000081526004016109fe90610db5565b60405180910390fd5b60038060006101000a81548160ff02191690836003811115610a2c57610a2b610b55565b5b0217905550565b60015481565b600081831115610a4b57819050610a4f565b8290505b92915050565b6000819050919050565b610a6881610a55565b82525050565b6000602082019050610a836000830184610a5f565b92915050565b600073ffffffffffffffffffffffffffffffffffffffff82169050919050565b6000610ab482610a89565b9050919050565b610ac481610aa9565b82525050565b6000602082019050610adf6000830184610abb565b92915050565b600080fd5b6000610af582610a89565b9050919050565b610b0581610aea565b8114610b1057600080fd5b50565b600081359050610b2281610afc565b92915050565b600060208284031215610b3e57610b3d610ae5565b5b6000610b4c84828501610b13565b91505092915050565b7f4e487b7100000000000000000000000000000000000000000000000000000000600052602160045260246000fd5b60048110610b9557610b94610b55565b5b50565b6000819050610ba682610b84565b919050565b6000610bb682610b98565b9050919050565b610bc681610bab565b82525050565b6000602082019050610be16000830184610bbd565b92915050565b600082825260208201905092915050565b7f41756374696f6e206973206e6f7420696e2072756e6e696e672070726f63657360008201527f7300000000000000000000000000000000000000000000000000000000000000602082015250565b6000610c54602183610be7565b9150610c5f82610bf8565b604082019050919050565b60006020820190508181036000830152610c8381610c47565b9050919050565b7f4e487b7100000000000000000000000000000000000000000000000000000000600052601160045260246000fd5b6000610cc482610a55565b9150610ccf83610a55565b9250827fffffffffffffffffffffffffffffffffffffffffffffffffffffffffffffffff03821115610d0457610d03610c8a565b5b828201905092915050565b6000610d1a82610a55565b9150610d2583610a55565b925082821015610d3857610d37610c8a565b5b828203905092915050565b7f4f6e6c792061756374696f6e6565722063616e2063616c6c207468697320667560008201527f6e6374696f6e0000000000000000000000000000000000000000000000000000602082015250565b6000610d9f602683610be7565b9150610daa82610d43565b604082019050919050565b60006020820190508181036000830152610dce81610d92565b905091905056fea2646970667358221220fd72a961e9e68c60fe8b3e6ac9985e57371542f0157f5574e91a877faa7876ae64736f6c634300080b0033",
  "immutableReferences": {},
  "source": "// SPDX-License-Identifier: GPL-3.0\r\n\r\npragma solidity >=0.5.0 <0.9.0;\r\ncontract Auction{\r\n    address payable public auctioneer;\r\n    uint public StartTime;  // Start time of the block\r\n    uint public EndTime;   //  End time of the block\r\n    enum AuctionStatus{Started,Running,Ended,Cancelled}\r\n    AuctionStatus public auctionState;\r\n    // uint public HighestBid;\r\n    uint public HighestPayableBid;\r\n    uint public BidIncrement;\r\n    constructor(){\r\n        auctioneer=payable(msg.sender);\r\n        StartTime=block.number;     // Time is denoted in terms of block number\r\n        EndTime=StartTime+240;     //  15 seconds = 1 block so 1 hour = 4*60=240\r\n        auctionState = AuctionStatus.Running;\r\n        BidIncrement = 1 ether;\r\n    }\r\n    address payable public HighestBidder;\r\n    mapping (address=> uint) public bids;\r\n    modifier OnlyAucioneer(){\r\n        require(msg.sender == auctioneer,\"Only auctioneer can call this function\");\r\n        _;\r\n    }\r\n    modifier Started(){\r\n        require(block.number>StartTime);\r\n        _;\r\n    }\r\n    modifier BeforeEnding(){\r\n        require(block.number<EndTime);\r\n        _;\r\n    }\r\n    function AuctionCancel() public OnlyAucioneer{\r\n        auctionState = AuctionStatus.Cancelled;\r\n    }\r\n    function min(uint n1,uint n2) internal pure returns(uint){\r\n        if(n1>n2) return n2;\r\n        return n1;\r\n    }\r\n    function Bid() payable public BeforeEnding Started {\r\n        require(auctionState == AuctionStatus.Running,\"Auction is not in running process\");\r\n        require(msg.value>=1);\r\n        uint currentBid = bids[msg.sender]+msg.value;\r\n        require(currentBid>HighestPayableBid);\r\n        bids[msg.sender ]= currentBid;\r\n        if(currentBid<bids[HighestBidder]){\r\n            HighestPayableBid=min(currentBid+BidIncrement,bids[HighestBidder]);\r\n        }\r\n        else{\r\n            HighestPayableBid=min(currentBid,bids[HighestBidder]+BidIncrement);\r\n            HighestBidder=payable(msg.sender);\r\n        }\r\n    }\r\n    function finalizeAuction()public{\r\n        require(auctionState == AuctionStatus.Cancelled ||block.number>EndTime);\r\n        require(msg.sender ==auctioneer || bids[msg.sender]>0);\r\n        address payable person;\r\n        uint value;\r\n        if(auctionState==AuctionStatus.Cancelled){\r\n            person=payable(msg.sender);\r\n            value=bids[msg.sender];\r\n        }\r\n        else{\r\n            if(msg.sender==auctioneer){\r\n                person = auctioneer;\r\n                value = HighestPayableBid;\r\n            }\r\n            else{\r\n                if(msg.sender==HighestBidder){\r\n                    person=HighestBidder;\r\n                    value=bids[HighestBidder]-HighestPayableBid;\r\n                }\r\n                else{\r\n                    person=payable(msg.sender);\r\n                    value=bids[msg.sender];\r\n                }\r\n            }\r\n        }\r\n        bids[msg.sender]=0;\r\n        person.transfer(value);\r\n    }\r\n \r\n}",
  "sourcePath": "C:\\Users\\m3gupta\\OneDrive - Nokia\\Desktop\\My Project\\Auction Daps\\contracts\\Auction.sol",
  "compiler": {
    "name": "solc",
    "version": "0.8.11+commit.d7f03943.Emscripten.clang"
  },
  "schemaVersion": "3.4.4",
  "updatedAt": "2022-02-12T17:05:35.041Z",
  "networkType": "ethereum",
  "devdoc": {
    "kind": "dev",
    "methods": {},
    "version": 1
  },
  "userdoc": {
    "kind": "user",
    "methods": {},
    "version": 1
  }
}